:020000040800F2
:1000000000000220E1050008DD050008053B0008AE
:10001000DD050008DD050008DD0500080000000022
:10002000000000000000000000000000DD050008E6
:10003000DD05000800000000DD050008893A000821
:10004000DD050008DD050008DD050008DD05000808
:10005000DD050008DD050008DD050008DD050008F8
:10006000DD050008DD050008DD0500086129000840
:100070006D290008DD050008792900088529000898
:1000800005CE00088D1E0008DD050008DD0500080E
:10009000DD050008DD050008DD050008DD050008B8
:1000A000DD050008DD050008DD050008DD050008A8
:1000B000D9C10008E5C10008F1C10008C11E00084F
:1000C000DD050008CD1E0008DD0500088D330008A1
:1000D0009933000839CC000869CC00089DCC000891
:1000E000DD050008DD05000800000000DD05000852
:1000F000DD050008DD050008DD050008DD05000858
:10010000DD050008DD050008FDC10008A533000875
:10011000D1CC000805CD0008DD050008DD0500088C
:10012000DD050008DD050008C9330008FD330008BF
:1001300039CE0008DD050008DD050008DD050008F2
:1001400000000000000000000000000000000000AF
:10015000DD050008DD050008DD05000839CD0008D3
:10016000D91E0008DD050008993A0008BD3A0008CC
:10017000DD050008E13A0008DD050008DD0500089E
:10018000DD050008DD0500086DCD00089DCD0008E7
:10019000B1330008BD330008DD050008DD050008A7
:1001A000DD050008DD050008DD050008DD050008A7
:1001B00081260008DD050008DD050008DD050008D2
:1001C000DD050008DD050008DD050008DD05000887
:1001D000DD050008DD050008DD050008DD05000877
:1001E000DD050008DD050008DD050008DD05000867
:1001F000DD050008DD050008DD050008DD05000857
:10020000DD050008DD050008DD050008DD05000846
:10021000DD050008DD050008DD050008DD05000836
:10022000DD050008DD050008DD0500080000000010
:10023000DD050008DD05000800000000DD05000800
:10024000DD050008DD050008DD050008DD05000806
:10025000DD050008DD050008DD050008DD050008F6
:10026000DD050008DD050008DD050008DD050008E6
:10027000DD050008DD050008D1CD00080000000004
:10028000DD050008DD050008DD05000800000000B0
:0802900000000000DD0500087C
:1002980010B5054C237833B9044B13B10448AFF3B8
:1002A80000800123237010BD80030024000000009B
:1002B800ACF3000808B5034B1BB103490348AFF37F
:1002C800008008BD0000000084030024ACF300088F
:1002D80053B94AB9002908BF00281CBF4FF0FF31A5
:1002E8004FF0FF3000F074B9ADF1080C6DE904CEA1
:1002F80000F006F8DDF804E0DDE9022304B07047F9
:100308002DE9F047089D04468E46002B4DD18A42C0
:10031800944669D9B2FA82F252B101FA02F3C2F1F3
:10032800200120FA01F10CFA02FC41EA030E944084
:100338004FEA1C48210CBEFBF8F61FFA8CF708FBA5
:1003480016E341EA034306FB07F199420AD91CEB7D
:10035800030306F1FF3080F01F81994240F21C81AF
:10036800023E63445B1AA4B2B3FBF8F008FB1033F7
:1003780044EA034400FB07F7A7420AD91CEB04042C
:1003880000F1FF3380F00A81A74240F207816444FC
:10039800023840EA0640E41B00261DB1D440002381
:1003A800C5E900433146BDE8F0878B4209D9002DE5
:1003B80000F0EF800026C5E9000130463146BDE86F
:1003C800F087B3FA83F6002E4AD18B4202D38242D9
:1003D80000F2F980841A61EB030301209E46002D88
:1003E800E0D0C5E9004EDDE702B9FFDEB2FA82F2DD
:1003F800002A40F09280A1EB0C014FEA1C471FFA3B
:100408008CFE0126200CB1FBF7F307FB131140EA21
:1004180001410EFB03F0884208D91CEB010103F1EE
:10042800FF3802D2884200F2CB804346091AA4B2B0
:10043800B1FBF7F007FB101144EA01440EFB00FE84
:10044800A64508D91CEB040400F1FF3102D2A645E9
:1004580000F2BB800846A4EB0E0440EA03409CE788
:10046800C6F12007B34022FA07FC4CEA030C20FA35
:1004780007F401FA06F31C43F9404FEA1C4900FA55
:1004880006F3B1FBF9F8200C1FFA8CFE09FB1811D2
:1004980040EA014108FB0EF0884202FA06F20BD945
:1004A8001CEB010108F1FF3A80F08880884240F295
:1004B8008580A8F102086144091AA4B2B1FBF9F0D9
:1004C80009FB101144EA014100FB0EFE8E4508D9D4
:1004D8001CEB010100F1FF346CD28E456AD9023859
:1004E800614440EA0840A0FB0294A1EB0E01A1423E
:1004F800C846A64656D353D05DB1B3EB080261EBAC
:100508000E0101FA07F722FA06F3F1401F43C5E985
:10051800007100263146BDE8F087C2F12003D840BB
:100528000CFA02FC21FA03F3914001434FEA1C47FD
:100538001FFA8CFEB3FBF7F007FB10360B0C43EAEF
:10054800064300FB0EF69E4204FA02F408D91CEB9F
:10055800030300F1FF382FD29E422DD9023863449D
:100568009B1B89B2B3FBF7F607FB163341EA03413D
:1005780006FB0EF38B4208D91CEB010106F1FF388C
:1005880016D28B4214D9023E6144C91A46EA004683
:1005980038E72E46284605E70646E3E61846F8E615
:1005A8004B45A9D2B9EB020864EB0C0E0138A3E75E
:1005B8004646EAE7204694E74046D1E7D0467BE73F
:1005C800023B614432E7304609E76444023842E7B7
:1005D800704700BFFEE700BF0B480C4A904203D0AB
:1005E800121A0B490EF0B4FD0A480B4A904203D088
:1005F800121A00210EF0BAFD03F0AAFC0EF084FDD9
:1006080000F02CFDFEE700BF000000247C0300245E
:10061800DCF3000880030024F4370024704700BF8F
:1006280069B9F0B5476883B006890446BE4228BF59
:100638003E46BB1B43601BB9037003B0F0BD704757
:10064800C7F516370D464030012101F0C7FA374487
:10065800064904F10C0001942B46054C39443246F6
:10066800009403F0FDF803B0F0BD00BF00000030B7
:10067800290600082DE9F04F08238BB0DFF8909485
:10068800804605930124B9F8003008F14C0600278C
:100698004FF0020BADF8003008F1480AB9F8043001
:1006A80008F1180580F84E401020ADF80430B9F86C
:1006B80008300494ADF806300B23CDE90677ADF881
:1006C8000230CDE90277CDE908B700F0D9FDA8F8E6
:1006D8004C00304601F098F988F84A40162000F09E
:1006E800CFFDA8F84800504601F08EF9BDF8062065
:1006F800404688F8524020F8502F01F085F96946A5
:10070800284603F01DF8F84BF84AF949F948DFF88C
:1007180004C4C8E90732F84AC8E90912F74A394651
:10072800C8E90B0202F1B242504602F53322063202
:10073800C8F83420F24AC8E90EC2A2F1C652A2F59E
:100748005432A2F28A22C8F8402002F1845202F5FB
:100758000632C332C8F84420EA4AC8F8542028228E
:1007680088F8582001F03AFA642003F039FA214653
:1007780050464FF0360A01F031FA642003F030FA9F
:10078800394630468DF8004001F028FA224669467D
:100798006423284603F05AF8642003F021FACB2397
:1007A800394630468DF8003001F018FA224669467D
:1007B8006423284603F04AF809F10C0309F11C09DF
:1007C80093E80300009030468DF80410214601F0AC
:1007D80005FA052269466423284603F037F8CF2333
:1007E800394630468DF8003001F0F8F9224669465E
:1007F8006423284603F02AF859F8083C2146304675
:10080800ADF800301B0C8DF8023001F0E7F9032237
:1008180069466423284603F019F8E8233946304628
:100828008DF8003001F0DAF922466946642328463B
:1008380003F00CF859F8043C21463046ADF8003076
:100848001B0C8DF8023001F0C9F9032269466423B4
:10085800284602F0FBFFEA23394630468DF800307F
:1008680001F0BCF9224664236946284602F0EEFFEF
:1008780021463046ADF8007001F0B0F95A46694695
:100888006423284602F0E2FFED23394630468DF80E
:10089800003001F0A3F9224669466423284602F095
:1008A800D5FF994B21463046009301F097F9042271
:1008B80069466423284602F0C9FFF72339463046C3
:1008C8008DF8003001F08AF92246694664232846EB
:1008D80002F0BCFF2023214630468DF8003001F09D
:1008E8007DF9224669466423284602F0AFFFC023FB
:1008F800394630468DF8003001F070F922466946D5
:100908006423284602F0A2FF2323214630468DF8AF
:10091800003001F063F9224669466423284602F054
:1009280095FFC123394630468DF8003001F056F95D
:10093800224669466423284602F088FF1023214690
:1009480030468DF8003001F049F9224669466423A3
:10095800284602F07BFFC523394630468DF8003023
:1009680001F03CF9224669466423284602F06EFFEE
:1009780042F63E0321463046ADF8003001F02EF92C
:100988005A4669466423284602F060FFC723394661
:1009980030468DF8003001F021F92246694664237B
:1009A800284602F053FF8623214630468DF8003052
:1009B80001F014F9224664236946284602F046FFEE
:1009C800394630468DF800A001F008F922466946FC
:1009D8006423284602F03AFF4823214630468DF822
:1009E800003001F0FBF8224669466423284602F0ED
:1009F8002DFF3A23394630468DF8003001F0EEF8E5
:100A0800224669466423284602F020FF55232146E2
:100A180030468DF8003001F0E1F82246694664233B
:100A2800284602F013FFB123394630468DF80030CE
:100A380001F0D4F8224669466423284602F006FFEE
:100A48004FF4C05321463046ADF8003001F0C6F8E7
:100A58005A4669466423284602F0F8FEB62339460A
:100A680030468DF8003001F0B9F822466946642313
:100A7800284602F0EBFE254B214630461B68ADF8B0
:100A880000301B0C8DF8023001F0A8F803226946EB
:100A98006423284602F0DAFEF223394630468DF800
:100AA800003001F09BF8224664236946284602F08C
:100AB800CDFE214630468DF8007001F08FF82246B1
:100AC80069466423284602F0C1FE2623394630468B
:100AD8008DF8003001F082F82246642369462846E2
:100AE80002F0B4FE18E000BF0000FFFFFF5AEB1849
:100AF800FD76E0FFE1F98048E149E0FBE73FE001EE
:100B0800718C694A4001F00064031281E4F1000825
:100B180084F10008652975AD214630468DF80040FE
:100B280001F05CF8224669466423284602F08EFEEE
:100B3800E023394630468DF8003001F04FF8224660
:100B480069466423284602F081FE394BEC460FCBF8
:100B5800ACE807002CF8023B1B0C214630468CF809
:100B6800003001F03BF80F2269466423284602F062
:100B78006DFEE123394630468DF8003001F02EF83D
:100B8800224669466423284602F060FEEC4699E84E
:100B98000F00ACE807002CF8023B1B0C214630463E
:100BA8008CF8003001F01AF80F22694664232846B1
:100BB80002F04CFE1123394630468DF8003001F022
:100BC8000DF8224669466423284602F03FFE642059
:100BD80003F006F82923394630468DF8003000F036
:100BE800FDFF224664236946284602F02FFE394657
:100BF80030468DF800A000F0F1FF224669466423D4
:100C0800284602F023FE0A2002F0EAFF98F858303E
:100C1800304621468DF8003000F0E0FF642322467C
:100C28006946284602F012FE0BB0BDE8F08F00BFFF
:100C3800E8F100082DE9F04F89B099429DF850403D
:100C48009DF84CB0019400F0DB80129CA24200F0A9
:100C58003081129C5E1AB0F854E0A41A002E84EA7F
:100C6800E475B8BF7642A5EBE4752C460295994227
:100C780034BF01254FF0FF35A6EB040C0395129DF8
:100C8800AA4234BF01254FF0FF35734504954ED273
:100C9800B0F85640129DA54249D2129C0EFB043969
:100CA80000EB4B044FEA4905A48B0095019DFF2DED
:100CB80000F0FA80019DDFF8ACA2AF1C24F4FC65BB
:100CC80004F4FC644FEAA708059506941AF819403D
:100CD800C8F1400E00EB44045FFA8EFEA58B25F4A4
:100CE800FC6405F4FC650EFB04F40EFB05FE059D93
:100CF80008FB0544069D24F07F4408FB05E524F421
:100D0800410405F4FC3524F4784424F03F042C43D2
:100D1800A409DFF84CE24FEA1428009D0EF8198068
:100D280075440AF819B06C70B0F854E001E0019C01
:100D3800A71CBC10029D00930594C4F14004C5F1A2
:100D4800000AE4B2069401E0B0F854E08E453FD9B9
:100D5800B0F8564094423BD900EB4B0402FB0E1509
:100D6800DFF80082B4F81C904FEA450E019CFF2C76
:100D780024D029F4FC6409F4FC69234618F81540CA
:100D880000EB4404A78B27F4FC6407F4FC6707977F
:100D9800069F07FB04F4059F07FB03446F4B2340A2
:100DA800DDE9067407FB04F42746059C04FB097774
:100DB80007F4FC3743EA07044FEA9419684C4FEAF2
:100DC800192708F815B0A64404F815708EF8019094
:100DD800BAEB4C0F4FEA4C0404DA029DACEB050C5D
:100DE800039D2944A64202DD049CB4442244009B8E
:100DF8009942A9D1129C9442A6D109B0BDE8F08FBE
:100E0800129B09B25E1CB61A12B202FA86F6964214
:100E1800F3DD04F1020E4FEAAE0ECEF140085FFAA0
:100E280088F8B0F854308B4237D9B0F8564003FBF5
:100E38000213A24231D25D00DFF828C100EB4B0457
:100E4800DFF818910095019DA48BFF2D1BD01CF88D
:100E5800135024F4FC6A04F4FC6400EB45052746AF
:100E6800AD8B25F4FC6405F4FC6508FB04F408FB71
:100E780005F50EFB0A440EFB075504EA090405F4C0
:100E8800FC352C43A409364D5F000CF813B04FEA2B
:100E9800142C2F4405F813C07C70013212B296420C
:100EA800BFDC09B0BDE8F08F40F20117DFF8B4A04D
:100EB8002FE75E1C12B2761A09B201FA86F6B14221
:100EC8009BDA019B03F1020E4FEAAE0ECEF1400809
:100ED8005FFA88F8B0F85430994237D2B0F85640E3
:100EE80002FB0313944231D95D00DFF878C000EBB0
:100EF8004B04DFF868900095019DA48BFF2D1BD053
:100F08001CF8135024F4FC6A04F4FC6400EB450557
:100F18002746AD8B25F4FC6405F4FC6508FB04F456
:100F280008FB05F50EFB0A440EFB075504EA090405
:100F380005F4FC352C43A409094D5F000CF813B0E7
:100F48004FEA142C2F4405F813C07C70013109B204
:100F5800B142BFDB09B0BDE8F08F00BFC0073E005B
:100F680000000030000000C02DE9F047B0F85460E0
:100F780000F14C0986B000F11808013E2A2300212F
:100F88000446B0F8565000F10C0AB6B248460F466F
:100F98008DF8143000F022FE6423012205A9404692
:100FA800013D02F053FC8DF81760360A48460121CE
:100FB8008DF814708DF81570ADB28DF8166000F0CC
:100FC8000DFE042205A96423404602F03FFC2B23B2
:100FD800394648468DF8143000F000FE642301229B
:100FE80005A9404602F032FC8DF817502D0A4846F4
:100FF80001218DF814708DF815708DF8165000F0D9
:10100800EDFD042205A96423404602F01FFC2C23B1
:10101800394648468DF8143000F0E0FD05A96423F0
:101028000122404602F012FC01214FF41633A28A35
:10103800484621732361039200F0D0FD05493B46E1
:10104800039A4046CDE9001A034902F009FC06B0AC
:10105800BDE8F08729060008000000300121724829
:10106800724C734D2DE9804885B000F087F9112343
:10107800636002F0B3FD034620462360FFF7FAFAE7
:10108800A18B00236B4C080A661CC9B2002204F825
:10109800130006F8131005F813200133B3F5963F33
:1010A800F4D1624BC8226427B3F85410B3F82CB0BB
:1010B80001FB02F2B3F856804FEA1B2A501C05EBDD
:1010C800020E4FEA4109224420445FFA8BFB642355
:1010D8008B4209D2B8454FF0080C05D902F813A085
:1010E8000EF813C000F813B00133962BF0D1013776
:1010F800CE444A444844962FE9D164234FF0080966
:101108004FF0FF0A494898461A4619460097CDE914
:10111800019AFFF78FFD3B46424641464348CDF8CA
:101128000080CDE9019AFFF785FD3B463A464146E6
:101138003E480097CDE9019AFFF77CFD42463B46C1
:1011480039463A480097CDE9019AFFF773FD3748C9
:10115800FFF70AFF354B998B0023080AC9B2002212
:1011680004F8130006F8131005F813200133B3F53B
:10117800963FF4D12D4B4FF0C80C6427B3F8542098
:10118800B3F82C900CFB02FCB3F856004FEA192B6D
:101198000CF1010E05EB0C084FEA420AA4445FFA71
:1011A80089F9A6446423934209D287424FF0080183
:1011B80005D20CF813B008F813100EF81390013389
:1011C800962BF0D10137D044D444D644962FE9D198
:1011D80064234FF0FF0A4FF00809144898461A464E
:1011E8001946CDF808A0CDE90079FFF723FD3B4665
:1011F800424641460D48CDF80080CDE9019AFFF7F7
:1012080019FD3B463A46414608480097CDE9019A00
:10121800FFF710FD3B464246394604480097CDE9A2
:10122800019AFFF707FD92E7040400249C030024B9
:10123800000000C00000003010B50D4800240D4A21
:101248000D490460446104620DF04AFF0B4B4FF4F2
:10125800484014210D221C731C6198829C6183F8FC
:10126800591083F85A20A3F86040A3F8664010BDCF
:101278000404002400000024250600089C03002420
:10128800202882B009D8084B03EB400213F810302D
:10129800507843EA002002B0704701230C2043EA4B
:1012A800002002B0704700BFF8F10008F0B5032332
:1012B80099B000270125129306462C4B09A81595CD
:1012C800CDE90E7340F20453ADF84030284BCDE918
:1012D8001357099300F098FB09A800F071FC002847
:1012E80036D1244B04AF04460090CDF84230102389
:1012F800394604958DF820301F4BCDE91650CDE9BD
:1013080006506846059300F0E9FD0823009A01A9F4
:1013180009A8ADF804508DF8064009940295039386
:1013280000F0E4F800230EA938463024049301F0B5
:101338002BFB03224FF07E5309A906F114000B93EF
:101348000C93CDE90942049A00F00CFB19B0F0BDEA
:1013580040F60132074B169704AFADF824200998E0
:10136800CDF84230179500F081F8DBE70402040459
:1013780003030001040604030704010B2DE9F043ED
:1013880004462DED028B83B0002948D0012140F29C
:10139800011200230091ADF804208DF80630304A80
:1013A8000126304B271D304904F12908626040F2BC
:1013B8000272A36040F60663E16004F12509268203
:1013C800A4F8252084F82760A4F8293084F82B6035
:1013D80002F074FD6946054648B304F130008DF803
:1013E800066002F0C9FC072D34D104F1140520462B
:1013F800FFF75CFF284600F0F1FA2846B0EE408A75
:1014080000F0E8FAD0ED007AF8EE677A88EE277AED
:1014180084ED0E7A03B0BDEC028BBDE8F08340F298
:10142800011300918DF80610ADF80430B7E704F108
:10143800300002F0A1FC3946204600F099FF4846EA
:1014480000F0E2FA404600F0DFFA04F1120000F082
:1014580077F9CAE73946204600F08AFFC5E700BF9A
:101468000508050905070506050A060610B584B02E
:1014780003460124ADF8040003A8ADF80C30ADF81C
:101488000E4000F0C1FA214603A800F0A7FB204651
:1014980002F0A6FB002103A800F0A0FB204602F002
:1014A8009FFB214603A800F099FB04B010BD00BFC4
:1014B80010B5C2F3002384B00C46017C8DF80D20D2
:1014C80043EA4402FA2402238DF80C2003AA00946C
:1014D80000F09AFD18B10124204604B010BD04465E
:1014E8000A2002F07DFB204604B010BD034670B50B
:1014F80043F8042B044684B007C983E80700A3799E
:1015080083B91A210B461E22FA2523742046ADF80A
:101518000C20022303AA009500F076FD28B10120D3
:1015280004B070BD1B210B46EDE70A2002F058FB02
:101538004FF4B85200950223ADF80C20204603AAB8
:10154800217C00F061FD0028E9D10A2002F048FB67
:1015580041F2027200950223ADF80C20204603AA3E
:10156800217C00F051FD0028D9D10A2002F038FB77
:10157800042200950223ADF80C20204603AA217C02
:1015880000F042FD0028CAD10A2002F029FB0622F9
:1015980000950223ADF80C20204603AA217C00F018
:1015A80033FD0028BBD10A2002F01AFB41F20822C1
:1015B80000950223ADF80C20204603AA217C00F0F8
:1015C80023FD0028ABD10A20064602F009FB00954E
:1015D800022303AA217C2046ADF80C6000F014FD1C
:1015E80000289CD1304602F0FBFA009522790C23A2
:1015F8002046002A8DF80C3003AA4FF0020314BFCE
:10160800622142218DF80D10217C00F0FDFC00289C
:1016180085D1304602F0E4FA2279D4E902310B434D
:10162800DBB20AB943F0400362790AB143F0200300
:101638000E22FA258DF80D302046009502238DF8EC
:101648000C2003AA217C00F0DFFC00287FF467AFA0
:101658000A2002F0C5FA102200950223ADF80C20EA
:10166800204603AA217C00F0CFFC00287FF457AF66
:101678000A2002F0B5FA122100950223ADF80C10E9
:1016880003AA217C204600F0BFFC00287FF447AF66
:101698000A2002F0A5FA012209212046FFF708FFD7
:1016A800003818BF01203BE7F0B5102387B0234C62
:1016B800012200250126002702A920460195CDE92F
:1016C80002234FF48052CDE9046708F029FA642018
:1016D80002F09AFE02A94FF480522046CDE9046731
:1016E80002261027CDE9026708F01AFA0322102310
:1016F80002A92046CDE9022300230422CDE90423D0
:101708004FF4805208F00CFA40F23223042202A966
:10171800019310232046CDE90223019A0123059263
:101728004FF48052049308F0FBF940F60601204676
:1017380008F016FA284607B0F0BD00BF4804002498
:101748001C4B00221C494FF0400C30B5054689B0AF
:101758000220596007219A601A620124DA620A227B
:101768004FF4006EDC6006922022CDE900010420CF
:101778000821CDE9020103201021CDE90401082048
:101788006946C3E904024FF4C072181DC3E906C2D2
:101798004FF48052C3E909E208F098F938B92846AD
:1017A800FFF782FF003818BF012009B030BD20467E
:1017B80009B030BD4404002440410052614A002170
:1017C800D0B513688EB00A91002B40F0B9805E4BFB
:1017D80001214FF683700C2411600221D3F8D42024
:1017E8000026032742F48052C3F8D420D3F8D4202B
:1017F80002F480520092009AD3F8E02042F01002DE
:10180800C3F8E020D3F8E02002F010020192019A18
:10181800D3F8E02042F04002C3F8E020D3F8E020FB
:1018280002F040020292029AD3F8E02042F0080245
:10183800C3F8E020D3F8E02002F008020392039AEC
:10184800D3F8E02042F48072C3F8E020D3F8E02017
:1018580002F480720492049AD3F8E02042F08002E5
:10186800C3F8E020D3F8E02002F080020592059A40
:10187800D3F8E02042F02002C3F8E020D3F8E020BB
:1018880002F020020692069AD3F8E02042F0040201
:10189800C3F8E020D3F8E0300C9403F00403079376
:1018A8000323079A0B93CDE9080108A9274803F0F9
:1018B80051FE48F23712022308A925480C94CDE9B5
:1018C8000823CDE90A6703F045FE4CF203720223B0
:1018D80008A920480C94CDE90823CDE90A6703F04C
:1018E80039FE40F2FF62022308A91B480C94CDE997
:1018F8000823CDE90A6703F02DFE4FF60C72022388
:1019080008A916480C94CDE90823CDE90A6703F025
:1019180021FE4FF63F02022308A911480C94CDE995
:101928000823CDE90A6703F015FE2022022308A93F
:101938000A480C94CDE90A67CDE9082303F00AFEAA
:101948000EB0D0BD400400240044025800100258D4
:1019580000180258000C025800200258001C0258B7
:101968000014025830B5184C154685B0046004F1CF
:10197800080EEC460FC98EE80F00D4ED047AF5EE98
:10198800C07A8CE80F00F1EE10FA1ADDB7EE006AA3
:1019980094ED057A27EE277AC6EE276A84ED0D7A4C
:1019A800C4ED0C6A6DB1204640F8185F01F0E4F808
:1019B800064903690020064A2162A262E36005B075
:1019C80030BD012005B030BD7C0400240078023011
:1019D8000058023000680830704700BF00681830AF
:1019E80001F0CCB810B4074B4FF07E5130240022E0
:1019F800032019619C60D8605DF8044B5961C3E904
:101A0800062270477C0400248378022B30B50446F4
:101A18008FB037D0032B33D0012B31D000230A935A
:101A2800E378012B2AD0022B28D000230B93002324
:101A380020460C9302F0C6FB0546204602F0CAFB7E
:101A480023780990082B13D8DFE803F01F32455894
:101A58006B7E91A40500594BD3F8E02042F48072C4
:101A6800C3F8E020D3F8E03003F480730893089BB0
:101A780009A9284603F06EFD0FB030BD0B93D6E7D9
:101A88000A93CDE711230A93CAE74C4B09A92846C4
:101A9800D3F8E02042F00102C3F8E020D3F8E030A8
:101AA80003F001030093009B03F054FD0FB030BD19
:101AB800424B09A92846D3F8E02042F00202C3F8B5
:101AC800E020D3F8E03003F002030193019B03F018
:101AD80041FD0FB030BD394B09A92846D3F8E020A5
:101AE80042F00402C3F8E020D3F8E03003F0040326
:101AF8000293029B03F02EFD0FB030BD2F4B09A9B6
:101B08002846D3F8E02042F00802C3F8E020D3F8D2
:101B1800E03003F008030393039B03F01BFD0FB0B1
:101B280030BD264B09A92846D3F8E02042F0100220
:101B3800C3F8E020D3F8E03003F010030493049BCB
:101B480003F008FD0FB030BD1C4B09A92846D3F897
:101B5800E02042F02002C3F8E020D3F8E03003F0A0
:101B680020030593059B03F0F5FC0FB030BD134B24
:101B780009A92846D3F8E02042F04002C3F8E02043
:101B8800D3F8E03003F040030693069B03F0E2FC31
:101B98000FB030BD094B09A92846D3F8E02042F020
:101BA8008002C3F8E020D3F8E03003F08003079305
:101BB800079B03F0CFFC0FB030BD00BF00440258B4
:101BC80038B5054602F0FEFA0446284602F002FB44
:101BD80001462046BDE8384003F0C4BE70B506464D
:101BE8000D4602F0EFFA0446304602F0F3FA2A1ED8
:101BF8000146204618BF0122BDE8704003F0B8BE78
:101C08000023122270B586B0CDE90223049303683D
:101C1800032B01D804230593061D841D304602F0CA
:101C2800D1FA0546304602F0D5FA034601A92846FE
:101C3800019303F08FFC204602F0C4FA03462046C5
:101C48001C4602F0C7FA01A903462046019303F097
:101C580081FC06B070BD00BF634A0368934210B5AB
:101C68008CB028D0614A934258D0614A934200F020
:101C78009480604A934201D00CB010BD5E4C5F481E
:101C8800D4F8E03043F00203C4F8E030D4F8E03090
:101C980003F002030A930A9BFFF7B2FFD4F8F4306B
:101CA80043F08003C4F8F430D4F8F43003F0800330
:101CB8000B930B9BE0E7504C5148D4F8E03043F0CD
:101CC8000203C4F8E030D4F8E03003F002030193D3
:101CD800019BFFF795FFD4F8E83000221F2043F45A
:101CE80000131146C4F8E830D4F8E83003F40013C0
:101CF8000293029BD4F8D83043F00103C4F8D830DB
:101D0800D4F8D83003F001030393039B02F0A6FB39
:101D18001F200CB0BDE8104002F0DEBB364C39483D
:101D2800D4F8E03043F08003C4F8E030D4F8E03071
:101D380003F080030493049BD4F8E03043F00203DB
:101D4800C4F8E030D4F8E03003F002030593059BB3
:101D5800FFF756FFD4F8E8300022212043F480032F
:101D68001146C4F8E830D4F8E83003F48003069349
:101D7800069BD4F8D83043F00103C4F8D830D4F81F
:101D8800D83003F001030793079B02F067FB21207B
:101D98000CB0BDE8104002F09FBB1B48FFF730FFB6
:101DA800154B00224820D3F8E840114644F40004BB
:101DB800C3F8E840D3F8E84004F400040894089C09
:101DC800D3F8D84044F00104C3F8D840D3F8D83049
:101DD80003F001030993099B02F040FB48200CB073
:101DE800BDE8104002F078BB0054004000580040A5
:101DF800005C0040001C00580044025840070024C2
:101E0800B804002490050024680600242DE9F04356
:101E18001A4B87B000254FF010099E46EC46184B28
:101E2800FF22E04667461A700EF118060EF13004DC
:101E3800CDE90055CDE90255ADF80090BCE80F009A
:101E4800CDE90455AEE80F009CE803000095ADF815
:101E580000908EE80300B8E80F000FC69CE8030066
:101E68000095ADF8009086E803000FCF0FC49CE8FA
:101E7800030084E8030007B0BDE8F08304000024F1
:101E8800B404002410B5EFF3108472B6084B1A7826
:101E9800120602D504B962B610BD1B78D8220548CF
:101EA8005BB202FB0300143003F002F8F2E700BF54
:101EB800B4040024B8040024014804F0F1BB00BFB6
:101EC80044050024014804F0EBBB00BF1C060024B5
:101ED800014804F0E5BB00BFF40600242DE9F043F7
:101EE8000F68D8243F4D85B007FB04F4032F05EB9A
:101EF8000403036040DCCB680E46012B3CD84DD070
:101F08004FF0D808B646DFF8FC9008FB0758BEE843
:101F18000F00C446ACE80F00DEF800300DF1100EDB
:101F2800CCF80030D8F808C099E80F000EE90F0087
:101F38000EEB8703BCF1010F53F8103CC8F88C3046
:101F480031D0BCF1020F42D0BCF1000F35D0317C4A
:101F58008C34D823002201202C4403FB075349006A
:101F6800C3E92602C3F894102046C3E92822C3E92E
:101F78002A2204F087F918B1012005B0BDE8F083E2
:101F88000146204604F098FB0028F5D1014620467A
:101F980004F0BCFB003818BF0120EEE70B7C103BB7
:101FA800672BADD9E8E701F087FF0F4B98420CBFCC
:101FB8000E4B0F4BC8F89030C9E701F07DFF0A4B74
:101FC80098420CBF0B4B0C4BC8F89030BFE701F0A0
:101FD80073FF054B98420CBF084B094BC8F890306B
:101FE800B5E700BFB8040024000E27072D0FB03056
:101FF8003211D0205F4390608A62E030200BA0103D
:102008001A098010B0F100082DE9F041D0F80080DD
:1020180082B00D4617461E4608F18C04204604F08F
:1020280047FB2028FAD1D8F80C3073B96D00204648
:10203800089C33463A46A9B2009404F079F900386E
:1020480018BF012002B0BDE8F081089B324639462E
:10205800204604F041FAF2E7044B10221A7483F880
:10206800E82083F8C02183F898227047B804002438
:1020780030B5002395B04FF48071062204460B93C7
:1020880006921393CDE90C13CDE90E33CDE9113344
:1020980001F014FF07282BD004F1100541F2883213
:1020A80006A9284605F044F928B10123184684F802
:1020B8005C3015B030BD0222022306A92846CDE9BE
:1020C800002310220123CDE9022300224FF48003CC
:1020D800CDE9042305224FF0807306926A460F93D8
:1020E80041F2883305F090FA0028DED115B030BDF2
:1020F8000323012084F85C3015B030BD00000000D7
:1021080070B50023A4B04FF080724FF48075044678
:10211800ADF806300D93CDE910320122CDE90E530A
:10212800CDE91223CDE91433002943D0F02300F17F
:10213800100508AEADF80630C02341F288323146AA
:102148002846089305F0F4F828B10123184684F8C6
:102158005C3024B070BD41F288320DF1060128468A
:1021680005F050F903460028EFD105224FF480719D
:102178001E93284616924FF080721B9321931F924C
:1021880002AA9FED1F7BCDE91C13CDE922338DED0B
:10219800027B9FED1D7B41F2883316A98DED047BF0
:1021A8009FED1B7B8DED067B05F02EFA0028CCD128
:1021B80024B070BD00F1100508AE612341F28832E9
:1021C80031462846089305F0B3F80028BDD141F2FE
:1021D80088320DF10601284605F092F90028B4D19D
:1021E800BDF80630204623F0780343F04003ADF8ED
:1021F8000630FFF73DFF00289ED0A6E7AFF300802A
:1022080000000000010000001000000001000000B4
:1022180000000000000040002DE9F04F00234FF4BB
:10222800807501264FF0807804462DED028BABB007
:102238008DF8073013932193299314950E96CDF8B2
:102248005C80CDE91533CDE91863CDE91A33CDE9C2
:102258002253CDE92433CDE9273306231C9301F01B
:102268002DFE072808D004F1100741F288321CA976
:10227800384605F05DF840B10123184684F85C3013
:102288002BB0BDEC028BBDE8F08F4FF0020A4FF087
:10229800020B4FF0050941F2883308AA1CA93846F9
:1022A800CDF89480CDF870909FED2D8BCDE908ABDB
:1022B8004FF0000A4FF4800B8DED0A8BCDE90CAB83
:1022C80005F0A2F90028D7D141F2883238460EA984
:1022D80005F02EF80028CFD1402341F288320DF1C5
:1022E800070138468DF8073005F08CF80028C3D16F
:1022F80041F288330EA902AA3846CDF83890CDF8B5
:102308005C809FED197B8DED048BCDE906AB8DEDDF
:10231800027B05F079F903460028ADD1CDF870901D
:102328004FF00109CDF894804FF00008219308AAD6
:1023380029931CA938462295CDE92333CDE92733C3
:1023480041F288338DED0A8BCDE90CABCDE90889D4
:1023580005F05AF9002893D0304684F85C608FE77E
:1023680010000000010000004000000040000000D4
:102378002DE9F043624CA3B00D46046001F09EFDC8
:10238800072800F0A980286823466968AA6807C357
:102398001E46AB8926F8043B3046257B677B04F054
:1023A800A9FFE0B9574B012D4FF00108E061236107
:1023B80014BF4FF480134FF40003C4E9058893FA5F
:1023C800A3F3B3FA83F34FF48079013BC4F8249064
:1023D800C4E90B003046236204F020FF38B1012223
:1023E800134684F85C20184623B0BDE8F0836623C2
:1023F8000B90139041F2883206A90693CDE90C9010
:10240800CDE90E00CDE91100304604F091FF002817
:10241800E5D1992341F2883206A93046069304F0A3
:1024280087FF0028DBD105231C9019906A46149376
:102438004FF08073219014A91D9341F288339FEDCA
:102448002A7BCDE91A90CDE91F008DED007B9FED29
:10245800287B30468DED027B9FED277B8DED047B3D
:1024680005F0D2F80028BAD129462046FFF748FEE1
:102478000028B4D12046FFF7CFFE03460028AED18E
:10248800002FB0D1189330460027002606AA14A9B9
:10249800CDF86890CDE91F33EB2314934FF44063D4
:1024A8001B934FF4005317934FF440431C93A023FE
:1024B8001693062319934FF0805321934FF04073DE
:1024C800CDE906671D9305F017F9034600288AD061
:1024D800434684F85C8086E701230322184684F883
:1024E8005C2023B0BDE8F08300000000010000007C
:1024F8001000000001000000000000000000400083
:1025080018080024005000522DE9F04F8FB0414BBD
:102518000024026800AF9A427C63C7E90944C7E90E
:102528000B4403D03C37BD46BDE8F08F3A4B40F62C
:1025380009213A48EB46D3F8D42007F11C0607F1E5
:10254800220A4FF0020942F480424FF00308C3F810
:10255800D420D3F8D42002F48042BA60BA68D3F801
:10256800E02042F04002C3F8E020D3F8E02002F077
:102578004002FA60FA68D3F8E02042F02002C3F87B
:10258800E020D3F8E02002F020023A613A69D3F85B
:10259800E02042F01002C3F8E020D3F8E02002F077
:1025A80010027A617A69D3F8E02042F00202C3F897
:1025B800E020D3F8E030F86103F002033984BB610E
:1025C800174B7B60BB697B6853F8040F7B6001F095
:1025D800F9FD7B680546186801F0FCFD16F8013B1B
:1025E800786207F124012846C7F830807B63C7E981
:1025F8000A9402F0AFFF5645E5D100225C2011464F
:1026080001F02CFF5C2001F067FF3C37DD46BD463A
:10261800BDE8F08F00500052004402580A0A090928
:1026280074080024114B02689A4200D07047104A7F
:1026380070B5D2F8D4300F4C23F4804304F1180657
:10264800C2F8D43054F8040F01F0BCFD05462068E8
:1026580001F0C0FD0146284603F0BCF8B442F1D1B0
:102668005C20BDE8704001F045BF00BF005000523B
:102678000044025874080024014805F0C9B800BF96
:1026880028080024084B1A1D981D03F1080110B4EE
:102698009C1C9A6603F10A02C3E91834C3E91B01BA
:1026A8005DF8044B5A6770471808002438B503686A
:1026B80071B9026A00F1280500F5AC74012A0CBF53
:1026C800002140218BBB1D4B5722C0F858310DE02B
:1026D800426A00F1C00500F5E874012A0CBF002128
:1026E8004021EBB1164B5A22C0F8D03100232046C6
:1026F800C4E901214FF480524FF480616362626142
:102708004FF48042C4E903314FF48073C4E90623CF
:102718004FF40033236202F053F858B1FFBEFEE7CE
:10272800084B5822C0F8D031E0E7074B5922C0F8CF
:102738005831DBE7C5E92044A56338BD10000240E5
:102748007000024028000240580002402DE9F04382
:10275800821D05468BB0031D05F10A010830CDE93D
:10276800052305F10C02AB69CDE907010992002B9D
:102778003DD0EB69B3FA83F84FEA581801230222D7
:1027880005AE0AAF4FF006090393CDE9012356F8C9
:10279800044B2B792278934216D02B68F3B1012B86
:1027A80002D1F2B10A230493204601F013FD034637
:1027B8002046009301F006FD694602F0CBFEBE42BA
:1027C800E5D10BB0BDE8F083697963789942E4D12B
:1027D800B8F1000FF3D02B68002BE0D1CDF81090A2
:1027E800E2E76378022B14BF0A230823DBE74FF0E4
:1027F8000108C3E7534A0368934230B505468BB0D6
:1028080055D02032934252D04F4A934204D02032BE
:10281800934201D00BB030BD4C4C4D48D4F8E03059
:1028280043F00103C4F8E030D4F8E03003F00103CA
:102838000593059BD4F8E03043F00803C4F8E03072
:10284800D4F8E03003F008030693069BD4F8E03090
:1028580043F04003C4F8E030D4F8E03003F040031C
:102868000793079BD4F8F03043F40003C4F8F03022
:10287800D4F8F03003F400030893089BFFF766FFD1
:10288800D4F8D830296843F001032F4A3048C4F8F7
:10289800D830891AD4F8D83018BF012103F00103C1
:1028A8000993099B0BB0BDE83040FFF7FFBE274CEA
:1028B8002848D4F8E03043F00103C4F8E030D4F8F5
:1028C800E03003F001030093009BD4F8E03043F0BC
:1028D8001003C4F8E030D4F8E03003F0100301939B
:1028E800019BD4F8E03043F04003C4F8E030D4F85A
:1028F800E03003F040030293029BD4F8F03043F435
:102908008003C4F8F030D4F8F03003F48003039364
:10291800039BFFF71BFFD4F8D830296843F0010365
:10292800084A0C48C4F8D830891AD4F8D83018BFE7
:10293800012103F001030493049B0BB0BDE8304070
:10294800FFF7B4BE04580140045C0140004402583B
:10295800EC0A002490080024014802F0A9BA00BF3C
:10296800E8090024014802F0A3BA00BF600A002465
:10297800014802F09DBA00BF440C0024014802F04F
:1029880097BA00BFBC0C00242DE9F04F0C684FF437
:102998001776754F87B004FB06F6012C07EB060A7D
:1029A800C0F800A000F3A0800D468E464FF0000846
:1029B800D44669A3D3E9002369A1D1E90001CDE98F
:1029C800022306ABCAF8508203EB8403CDE9040165
:1029D80053F810BC53F8083CCAE992880193BEE842
:1029E8000F00ACE80F00BEE80F00ACE80F00019B39
:1029F8009EE80300CAF828B0CAF8C0308CE8030083
:102A08002B69042B0CD8DFE803F0737D8791030052
:102A18004FF41773554A03FB04739A64C3F8E02014
:102A2800AA692B6A002A43D0002B4FF4177308BFFA
:102A3800022203FB047318BF0322DA6201221A631D
:102A4800EA696B6A002A40D1191E4FF4177318BF40
:102A5800012103FB0473C3E931126B69022B05D80A
:102A6800434A12F80380434A52F823904FF41773ED
:102A780006F128004246494603FB04740023384403
:102A880063646363E365C4F8DC30C4F8CC30C4F82D
:102A9800F430C4E90F33C4E91533C4E93533C4E964
:102AA8003B33022306F056FF002849D0FFBEFEE75D
:102AB800191E4FF4177318BF012103FB0473C3E9F0
:102AC8000B12EA696B6A002ABED0002B4FF4177309
:102AD80008BF022203FB047318BF0322C3F8C420F3
:102AE8000122C3F8C820B8E7012007B0BDE8F08F7D
:102AF8004FF417734FF4FA5203FB04739A64C3F844
:102B0800E0208DE74FF417734FF47A5203FB0473F8
:102B18009A64C3F8E02083E74FF417734FF4FA423E
:102B280003FB04739A64C3F8E02079E74FF4177342
:102B38004BF6803203FB04739A64C3F8E0206FE716
:102B480006F1C000022342464946384406F002FF17
:102B58000028CAD0FFBEFEE704580140045C0140CB
:102B680024580140245C01409008002400770100AB
:102B78003CF2000840F200080068704703681B69CF
:102B8800042B05D8044A02EB830393ED000A70472F
:102B98009FED020A704700BF4CF2000800803B47D7
:102BA80070B5002304464FF4806204214FF4403589
:102BB8003448C4F83821C4F8D410C4F83431C4F8FF
:102BC8004C113149C4F8B000C4F82811C4E92F32B7
:102BD800C4E93133C4E93335C4E93733C4E94F3381
:102BE800C4E95135C4E95533A2680323C4F8D83081
:102BF800C4F85031042A0AD8DFE802F01F262D3421
:102C0800030055225623C4F8B420C4F82C310022FE
:102C1800402304F1B005C4F8B8202846C4F8303180
:102C280001F0CEFD08B1FFBEFEE704F5947630460C
:102C380001F0C6FDE8B1FFBEFEE725222623C4F851
:102C4800B420C4F82C31E2E727222823C4F8B420A2
:102C5800C4F82C31DBE73D223E23C4F8B420C4F885
:102C68002C31D4E753225423C4F8B420C4F82C31AF
:102C7800CDE704F12803C4E92865C4F8E830C4F8AE
:102C8800603170BD40040240580402402DE9F04F05
:102C9800814683B00E4617461D4600F1280420469B
:102CA80007F094FE01288246F9D14846FFF778FFDD
:102CB8008046002835D1EFF31083019372B6DFF810
:102CC80088B00C9B99F90820DFF880A0DFF8809085
:102CD800CBF800300D9B89F80020CAF800300DB100
:102CE8001846A847BAB23146204607F0E5F930B988
:102CF800019B03B962B6404603B0BDE8F08F0023DC
:102D0800CBF80030CAF80030FF2389F800300C9B5C
:102D18008BB101210D9888469847019B002BEAD179
:102D2800E8E70C9B53B1D0460D985146984740466A
:102D380003B0BDE8F08F4FF00108D9E7D046404610
:102D480003B0BDE8F08F00BF681700247017002497
:102D58006C1700242DE9F04F814683B00E461746C4
:102D68001D4600F12804204607F030FE012882465F
:102D7800F9D14846FFF714FF8046002835D1EFF314
:102D88001083019372B6DFF888B00C9B99F908207C
:102D9800DFF880A0DFF88090CBF800300D9B89F831
:102DA8000020CAF800300DB11846A847BAB231461B
:102DB800204607F045FB30B9019B03B962B640468F
:102DC80003B0BDE8F08F0023CBF80030CAF800301C
:102DD800FF2389F800300C9B8BB101210D988846A0
:102DE8009847019B002BEAD1E8E70C9B53B1D046EA
:102DF8000D9851469847404603B0BDE8F08F4FF014
:102E08000108D9E7D046404603B0BDE8F08F00BFBF
:102E180068170024701700246C1700242DE9F04F60
:102E2800814683B00F461646984600F1280420468E
:102E380007F0CCFD0128FAD182464846FFF7B0FEDC
:102E48000546002838D1EFF31083019372B699F93B
:102E58000830DFF88890DFF888B089F800300D9BDB
:102E6800DFF880A0CBF800300E9BCAF800300C9B2E
:102E78000BB10E9898471FFA88F33A463146204618
:102E880007F0D2F930B9019B03B962B6284603B0FE
:102E9800BDE8F08F0023CBF80030CAF80030FF23DC
:102EA80089F800300D9B8BB101210E980D4698478B
:102EB800019B002BEAD1E8E70D9B4BB155460E98D4
:102EC80051469847284603B0BDE8F08F0125DAE758
:102ED8005546284603B0BDE8F08F00BF6C170024A4
:102EE80068170024701700242DE9F043002387B0E9
:102EF8000222044605690493CDE90223D0E90212AF
:102F08008E00FAB1022D7AD02178B5FA85F54FF006
:102F18000108276A0B294FEA551521D1A2780B2AF7
:102F280002D0B8F1000F38D123790B2B01D0002D36
:102F38006CD1A37917B10B2B40F09980002007B012
:102F4800BDE8F08335F002032178276A0CBF4FF003
:102F580001084FF00008023D18BF01250B29DDD0FC
:102F68007D4B94F801C053F8262010780B2802D026
:102F7800884200F0AD80D378D01C994202D10B2B47
:102F880040F0BD809379901D8B4202D10B2B40F00D
:102F9800BC80012007B0BDE8F083711C6E4BE0785F
:102FA80053F8213019780B2902D08A4200F0B580F5
:102FB800D97803F1030C0B2902D08A4200F0BB80B8
:102FC800997903F1060C0B29E3D08A42E1D1DB7928
:102FD8008342DED1634604F102099B784846059393
:102FE80001F0F0F88046484601F0F4F801A9019094
:102FF800404602F0AFFA23790B2B98D199E7017874
:10300800076A0B2940F0868001258DE7B11C524ADA
:10301800607952F8212011780B2902D08B4200F0F8
:103028008180D178D51C0B2902D08B4200F08D808D
:103038009179951D8B42ACD10B29AAD0D3798342C3
:10304800A7D12A46251D93782846059301F0BAF89A
:10305800034628461D4601F0BDF801A901902846FF
:1030680002F078FAA379002F7FF465AF66E7F11CC8
:10307800394AE07952F8212011780B2901D08B4286
:103088005FD0D178D51C0B2901D08B424FD09179D4
:10309800951D8B427FF47DAF0B293FF47AAFD3792E
:1030A80083427FF476AF2A46A51D93782846059378
:1030B80001F088F80446284601F08CF8034601A977
:1030C8002046019302F046FA002007B0BDE8F083DD
:1030D800537863457FF44FAF93782046059301F00A
:1030E80071F88146204601F075F801A9019048461B
:1030F80002F030FAA2780B2A7FF413AF14E71379A1
:1031080063457FF43FAF0246E6E7D37963457FF432
:1031180040AFF8E79846012522E7597881427FF4C5
:1031280047AF58E7517881427FF47BAF8AE711793E
:103138008142ACD1B7E7197981427FF441AF634648
:1031480049E7517881429CD1AEE7117981427FF4F9
:103158006FAF2A4676E700BF88F20008654A036821
:10316800934200F0B980A2F57842934200F0B6800D
:1031780002F58062934200F0B38002F578429342F0
:1031880000F0B08002F5E052934200F0AD805A4A58
:10319800934240F0AB8005234FF4D071574A01FBAE
:1031A80003F310B5D418D05C86B001F01BF8A078F2
:1031B80001F018F8207901F015F8A07901F012F85B
:1031C800A368052B11D8DFE803F0192F455B7103BD
:1031D8004B4BD3F8F42042F02002C3F8F420D3F884
:1031E800F43003F020030593059B2046FFF77CFE8F
:1031F800012801D006B010BDFFBEFEE7404B0022FB
:103208002320D3F8F01041F48051C3F8F010114690
:10321800D3F8F03003F480530093009B01F01EF9BB
:10322800232001F059F9E0E7354B00222420D3F898
:10323800E81041F48041C3F8E8101146D3F8E830AB
:1032480003F480430193019B01F008F9242001F065
:1032580043F9CAE72A4B00223320D3F8E81041F497
:103268000041C3F8E8101146D3F8E83003F40043EE
:103278000293029B01F0F2F8332001F02DF9B4E734
:103288001F4B00225420D3F8F01041F40051C3F82A
:10329800F0101146D3F8F03003F400530393039B66
:1032A80001F0DCF8542001F017F99EE7144B0022D6
:1032B8005520D3F8F01041F48011C3F8F0101146EE
:1032C800D3F8F03003F480130493049B01F0C6F89C
:1032D800552001F001F988E700235DE701235BE74A
:1032E800022359E7032357E7042355E700231B78F4
:1032F800FFDE00BF0030014000140058480D0024D4
:10330800004402582DE9F043002289B01B4B0121EB
:103318000DF1040C9E461A4B0791E146E0466746BC
:103328000EF11C060EF138050EF15404CDE9012208
:10333800CDE90322CDE90522FF221A70BCE80F006F
:10334800AEE80F009CE807008EE80700B9E80F0018
:103358000FC69CE8070086E80700B8E80F000FC50D
:103368009CE8070085E807000FCF0FC49CE807001A
:1033780084E8070009B0BDE8F08300BF0C01002411
:103388006C170024014807F0F5B900BF700D002440
:10339800014807F0EFB900BF100F0024014807F0FB
:1033A800E9B900BFB0100024014807F0E3B900BF35
:1033B80050120024014807F0DDB900BFF0130024C3
:1033C80010B5EFF3108472B6084B1A78120602D5BE
:1033D80004B962B610BD1B784FF4D07204485BB2D2
:1033E80002FB0300B03001F063FDF1E76C17002425
:1033F800480D002410B5EFF3108472B6094B1A7803
:10340800120602D504B962B610BD1B784FF4D0720B
:1034180005485BB202FB030000F5947001F048FD1B
:10342800F0E700BF6C170024480D00242DE9F04197
:1034380084B0EFF3108772B6284AFF21284C13682E
:10344800217023B100211160264A1068984723781B
:103458001B061CD5DFF894800025234E44462168BE
:1034680079B162686AB1A369012B22D0A3B96369F3
:103478003046019323690093E3682289FFF76AFCC9
:1034880018B301351C3406F5D076042DE7D107B9F9
:1034980062B604B0BDE8F081D4E90430CDE901306A
:1034A800E068238900903046FFF7B8FC0028E8D18F
:1034B8000BE0D4E904301146CDE900303046E3682A
:1034C8002289FFF7E3FB0028DBD1C5EBC50508EB34
:1034D800850348F825005860D9E700BF681700241D
:1034E8006C17002470170024480D00240C010024D8
:1034F8002DE9F04184B0EFF3108772B6284AFF2116
:10350800284C1368217023B100211160264A1068E5
:10351800984723781B061CD5DFF894800025234E96
:103528004446216879B162686AB1A369012B22D047
:10353800A3B963693046019323690093E36822893C
:10354800FFF708FC18B301351C3406F5D076042DB6
:10355800E7D107B962B604B0BDE8F081D4E9043018
:10356800CDE90130E068238900903046FFF756FC2A
:103578000028E8D10BE0D4E904301146CDE9003049
:103588003046E3682289FFF781FB0028DBD1C5EBD1
:10359800C50508EB850348F825005860D9E700BF42
:1035A800681700246C17002470170024480D0024A5
:1035B8000C0100242DE9F04184B0EFF3108772B6B6
:1035C800284AFF21284C1368217023B1002111607B
:1035D800264A1068984723781B061CD5DFF8948084
:1035E8000025234E4446216879B162686AB1A3690F
:1035F800012B22D0A3B96369304601932369009354
:10360800E3682289FFF7A6FB18B301351C3406F5D9
:10361800D076042DE7D107B962B604B0BDE8F081D1
:10362800D4E90430CDE90130E068238900903046C0
:10363800FFF7F4FB0028E8D10BE0D4E90430114689
:10364800CDE900303046E3682289FFF71FFB0028E8
:10365800DBD1C5EBC50508EB850348F825005860A4
:10366800D9E700BF681700246C17002470170024DE
:10367800480D00240C0100242DE9F04184B0EFF33B
:10368800108772B606F0E0FA284A294CFF21136821
:1036980021702BB1002111600121264A106898473A
:1036A80023781B061CD5DFF894800025224E44465B
:1036B800216879B162686AB1A369012B22D0A3B9E4
:1036C80063693046019323690093E3682289FFF711
:1036D80041FB18B301351C3406F5D076042DE7D12B
:1036E80007B962B604B0BDE8F081D4E90430CDE989
:1036F8000130E068238900903046FFF78FFB0028EF
:10370800E8D10BE0D4E904301146CDE90030304669
:10371800E3682289FFF7BAFA0028DBD1C5EBC505B3
:1037280008EB850348F825005860D9E76817002496
:103738006C17002470170024480D00240C01002485
:103748002DE9F0418F684FF4D0743D4E8C4607FB4D
:1037580004F4052F06EB04050560AE46BCE80F002F
:10376800AEE80F00BCE80F00AEE80F009CE80300CD
:103778008EE8030004D8EB68002B5ED0012B02D042
:103788000120BDE8F08100214FF4D07303FB0763EB
:103798001A69032AF4D8D3F814C0ACF104001C2821
:1037A800EED89B691BB1012BEAD14FF000734FF49F
:1037B800D07000FB0760C06918B10128E0D14FF054
:1037C80080704FF4D07505FB0765D5F820E0BEF191
:1037D800020FD5D8D5F82480B8F1070FD0D85204F5
:1037E800E962C5E90E300CF1FF332A6304F12800C1
:1037F8006B634FEA087330446B640023C5E91233E6
:10380800C5E91433C5E91833C5E91A33C5E91C33CA
:10381800C5E91E33C5F880300A4B53F82E200A4BF1
:103828002A6453F82730AB624FF08043EB6506F00B
:103838000BFA0028A5D0FFBEFEE74FF48001A3E7EE
:10384800480D002478F2000860F20008006892B27F
:1038580008B5283006F0A6FA003818BF012008BDC0
:103868002DE9F041174C006894F800C01CF0800F57
:10387800DDE9066720D10D4696461C468068EFF3C1
:10388800108272B6104BC0EBC0004FF00008012147
:1038980003EB800C8000CCF8045043F80080ACF8AF
:1038A80008E0CCF81470CCF81810CCE9034602B93B
:1038B80062B60020BDE8F081CDE90667BDE8F041B9
:1038C800FFF7E4B96C1700240C01002430B4544B02
:1038D800002108220220534CD9615862C3F8BC1158
:1038E800C3F8C401C3F85C13C3F86403C3F8F42431
:1038F800C3F8F814C3F8FC14C3F80405C3F89426F5
:10390800C3F89816C3F89C16C3F8A406C3F834285D
:10391800C3F83818C3F83C18C3F84408424D434864
:10392800C3E90521C3E96D21C3E9D5212288A3781C
:103938003F49EA80CA800B723E492B72CA800B72DB
:103948002168A0F803204371C28003723A4C3B48B7
:10395800E2802372A0F80320394C4371C2800372BD
:103968003848E2802372A0F80320374C4371C280A4
:103978000372080C2180A070A4F803206371E28010
:103988002372324C324D2180A070A4F80320637159
:10399800E28023722F4CEA8021802B72A070A4F859
:1039A80003206371E28023722B4C2180A070A4F85D
:1039B80003206371E2802372284C2180A070A4F850
:1039C80003206371E2802372254C2180A070A4F843
:1039D80003206371E2802372224C2180A070A4F836
:1039E80003206371E28023721F4C21801F49A0705D
:1039F800A4F803201E486371E2802372A1F8032013
:103A08001C4C4B71CA800B721B49E2802372C28026
:103A18000372A1F803204B71CA800B7230BC704747
:103A2800480D002484F2000894000024B800002403
:103A3800880000244C000024A0000024DC0000249E
:103A4800C400002464000024381700242017002430
:103A5800D00000242C170024081700245C17002429
:103A680044170024501700241417002400010024D0
:103A7800F4000024E800002470000024704700BF10
:103A880008B500F0AFFCBDE8084000F0AFBD00BFCE
:103A9800064808B503680BB101F06EFF04480368D7
:103AA8001BB1BDE8084002F05DBE08BD801B0024C4
:103AB80078170024064808B503680BB101F05CFFCD
:103AC800044803681BB1BDE8084002F04BBE08BDBE
:103AD800801B002478170024064808B503680BB13A
:103AE80001F04AFF044803681BB1BDE8084002F032
:103AF80039BE08BD801B002478170024364BDA6ACB
:103B0800520062D59A6A9A6A9A6A9B6A180600D520
:103B180000BE314B9B6A990600D500BE2E4B9B6AAE
:103B2800DA0600D500BE2C4B9B6A1B0700D500BEE9
:103B3800294B9B6A980700D500BE274B9B6AD9077B
:103B480000D500BE244B9B6A1A0400D500BE224B48
:103B58009B6A9B0400D500BE1F4B9B6AD80400D506
:103B680000BE1D4B9B6A190500D500BE1A4B9B6A07
:103B78005A0500D500BE184B9B6A9B0500D500BEB0
:103B8800154B9B6AD80500D500BE134B9B6A99015B
:103B980000D500BE104B9B6ADA0100D500BE0E4B63
:103BA8009B6A1B0300D500BE0B4B9B6A580300D5CC
:103BB80000BE094B9B6A990300D500BE064B9B6A61
:103BC800DA0306D400BE00BEFEE7DB6A9B07FAD51F
:103BD800F8E700BEF6E700BF00ED00E000F00EBC1D
:103BE80000F012BC2DE9F041CEB004464C22002171
:103BF8000AA80BF0BBFA2022002102A80BF0B6FAA3
:103C0800BC2200211EA80BF0B1FA022003F01EFA14
:103C18002368012B4FF0000354D0534A0225019327
:103C2800C820D16A514B21F00101D162D26A02F059
:103C3800010201929A6942F440429A619B6903F435
:103C480040430193019B494A93699B04FCD5484929
:103C58000224002201268B6A04274FF0080823F06B
:103C6800030323438B62052316900AA818934FF485
:103C780080331096179419941597CDF86880CDE97C
:103C88001B222122CDE91344CDE90A2303F0C8FE03
:103C980000B1FEE73F220323294602A8CDE902230B
:103CA80000220823CDE9042340224023CDE906233E
:103CB80040234FF48062CDE9082304F0DFF903467E
:103CC800B8B1FEE7294A04250093F0209169264BF4
:103CD80041F440419161926902F440420092DA6AEB
:103CE80042F00102DA62DB6A03F001030093009BF1
:103CF800A9E720224FF4805125934FF440152B92C9
:103D080080222D931EA83093269135914FF480710F
:103D1800249234920C223394439140F2271120923A
:103D28001022CDF884802A971F96CDE92E34CDE94C
:103D38003B334FF48033CDE9224631930024469338
:103D48000623CDE93E4527934FF48063094C2C9315
:103D58001E94CDE9281204F0EDFB00B1FEE703F054
:103D68009BF94EB0BDE8F0810004005800480258A5
:103D7800004402580F130F032DE9F0410D46044685
:103D880084B0D1E9000184E8030000F0FBFAAE79C1
:103D9800002E37D06F4609F039F9FEF737F8FFF7EC
:103DA800B1FA08F0C7FE2B79002B54D16B799BB17F
:103DB800BFF34F8FBFF36F8F3C4B0022C3F85022E5
:103DC800BFF34F8FBFF36F8F5A6942F400325A61C5
:103DD800BFF34F8FBFF36F8F4FF0FF3200230024E4
:103DE80000253946324802928DF80C30CDE900455D
:103DF80008F006FA2E4808F06BFA08F0B9F804B093
:103E0800BDE8F08120466F46FFF7ECFE012400F084
:103E18009BFB4FF040534FF4807838460193254B75
:103E2800ADF80040CDE9023800F0ACFB19224FF0A4
:103E3800404338468DF80F40ADF80D808DF80140AD
:103E48008DF80A608DF80820019300F09BFB042090
:103E580000F088FB9FE7154C0023C4F88430BFF3BB
:103E68004F8FD4F8803043F6E07EC3F3C906C3F31E
:103E78004E334FEA431C0CEA0E00334640EA837285
:103E8800013BC4F860225A1CF8D1ACF1200C1CF19B
:103E9800200FF0D1BFF34F8F636943F48033636120
:103EA800BFF34F8FBFF36F8F80E700BF00ED00E0D7
:103EB800741700240E00010304F010BA1C4B9B6811
:103EC80003F17842B2F5003F25D3B3F5803F20D304
:103ED80003F16042B2F5003F1FD303F15C42B2F533
:103EE800002F1CD303F17042B2F5902F19D303F1C0
:103EF8004842B2F5803F16D303F18042B2F1806F99
:103F080013D303F1E043B3F5000F2CBF08200720BB
:103F18007047012070470020704702207047032037
:103F2800704704207047052070470620704700BF7F
:103F380000ED00E003480023034A044903600BF046
:103F4800CFB800BF7417002400000024853A000889
:103F580010B4204C0022204B83B0D4F888101F489E
:103F680041F47001C4F8881019681D4C41F0010132
:103F780019601A61196808401A4918609A61DA616B
:103F88001A629A62DA621A635A639A63DA631A6483
:103F98005A64186820F4802018601A66D3F8DC2068
:103FA80042F06042C3F8DC20D3F8DC300193019B77
:103FB80023681940B1F1005F03D20B4B0122C3F80B
:103FC8000821044B4FF000629A6003B05DF8044B7F
:103FD800704700BF00ED00E0004402587FEDF6EAAC
:103FE8000010005C0000FFFF0080005100F57171B7
:103FF800D0F8040407F0A4BBC1EBC10300EB8303B2
:10400800D0F80404D3F8082207F0C8BBC1EBC103F9
:1040180000EB8303D0F804049A6C07F0FDBB00BFE3
:10402800D0F8040407F09CBCC16810B5044619B167
:10403800022900D0FEE70121D4F8040407F07AFC35
:10404800D4F80404BDE8104007F04CBC10B5044691
:10405800D0F8040407F072FC2268D2F8003E43F05E
:104068000103C2F8003E236A23B1034A136943F0EF
:104078000603136110BD00BF00ED00E0D0F8040492
:1040880007F066BCD0F8040407F07ABCD0F8040442
:1040980007F074BCD0F8040407F074BCD0F804042A
:1040A80007F072BC9446D0F898021A4608B56346E1
:1040B80002F0BCFE032802D8024B185C08BD02209F
:1040C80008BD00BFF8F20008D0F8980208B502F061
:1040D8003BFF032802D8024B185C08BD022008BD2C
:1040E800F8F20008D0F8980208B502F071FF03282A
:1040F80002D8024B185C08BD022008BDF8F200087F
:104108000A06D0F8983206D4C1EBC10103EB81014D
:1041180091F8FE01704701F07F01C1EBC10103EB8B
:10412800810191F83E007047D0F8980208B502F076
:1041380067FE032802D8024B185C08BD022008BDA0
:10414800F8F20008D0F8980208B502F0D5FE032866
:1041580002D8024B185C08BD022008BDF8F200081E
:10416800D0F8980208B502F09FFE032802D8024B47
:10417800185C08BD022008BDF8F20008D0F8C0029B
:1041880007F0B0BED0F8C00207F0C4BED0F8C00235
:1041980007F0CCBE704700BFD0F8C00207F0B2BE2F
:1041A800D0F8C00207F0B2BED0F8D00308B501F0CD
:1041B800A3FF032802D8024B185C08BD022008BDE3
:1041C800FCF20008024B027853F82200704700BF47
:1041D80020F30008024B427833F81200704700BF02
:1041E80000F300088CB00A2814D8DFE800F0152383
:1041F800313F4D5B6977859306004D4BD3F8E0203E
:1042080042F48062C3F8E020D3F8E03003F480631E
:104218000B930B9B0CB07047454BD3F8E02042F052
:104228000102C3F8E020D3F8E03003F00103019362
:10423800019BEFE73E4BD3F8E02042F00202C3F8BF
:10424800E020D3F8E03003F002030293029BE1E799
:10425800374BD3F8E02042F00402C3F8E020D3F84B
:10426800E03003F004030393039BD3E7304BD3F808
:10427800E02042F00802C3F8E020D3F8E03003F071
:1042880008030493049BC5E7294BD3F8E02042F0C8
:104298001002C3F8E020D3F8E03003F010030593D0
:1042A800059BB7E7224BD3F8E02042F02002C3F881
:1042B800E020D3F8E03003F020030693069BA9E73B
:1042C8001B4BD3F8E02042F04002C3F8E020D3F8BB
:1042D800E03003F040030793079B9BE7144BD3F8A8
:1042E800E02042F08002C3F8E020D3F8E03003F089
:1042F80080030893089B8DE70D4BD3F8E02042F428
:104308008072C3F8E020D3F8E03003F48073099397
:10431800099B7FE7064BD3F8E02042F40072C3F80C
:10432800E020D3F8E03003F400730A930A9B71E7A6
:1043380000440258704700BF0F4B1B780BB901208F
:10434800704710B504464FF47A700C4AB0FBF3F38B
:104358001068B0FBF3F000F0E1F80F2C00D808B1BA
:10436800012010BD002221464FF0FF3000F076F802
:10437800034B00201C6010BD840100247C01002434
:104388008801002438B50320124D00F055F8124C6E
:1043980003F0D4FD114A12499369C3F30323CB5C9C
:1043A80003F01F0320FA03F30E202B60926902F03A
:1043B8000F028A5C02F01F02D3402360FFF7BCFFA4
:1043C80010B10124204638BD0446FFF7B3FF20464C
:1043D80038BD00BF7C01002480010024004402583D
:1043E800E8F20008034A044B11681B780B44136079
:1043F800704700BF441E002484010024014B186844
:10440800704700BF441E002438B50446FFF7F6FF86
:104418000546631C02D0044B1B781C44FFF7EEFFD3
:10442800431BA342FAD338BD84010024014B18680A
:10443800000C70470010005C06494FF6FF0C0002A4
:10444800054BCA6800F4E06002EA0C02104303431B
:10445800CB60704700ED00E00000FA051B4BDB68FD
:10446800C3F3022300B5C3F1070E03F1040CBEF138
:10447800040F28BF4FF0040EBCF1060F1AD9033BF6
:104488004FF0FF3C0CFA03FC22EA0C024FF0FF3C11
:1044980000280CFA0EFC21EA0C0101FA03F141EAAA
:1044A80002010ADB09010A4BC9B2034483F800136D
:1044B8005DF804FB00221346E8E700F00F0009014D
:1044C800044BC9B2034419765DF804FB00ED00E023
:1044D80000E100E0FCEC00E0002807DB00F01F0131
:1044E80001234009024A8B4042F82030704700BF40
:1044F80000E100E000280DDB4309012200F01F0065
:104508000549203302FA00F041F82300BFF34F8F2A
:10451800BFF36F8F704700BF00E100E0431EB3F1A7
:10452800807F0CD24FF0E022002006494FF0F00CBB
:104538005361072381F823C09061136170470120FC
:10454800704700BF00ED00E0BFF35F8F044B002110
:104558005A6A22F480325A62C3F89410704700BF36
:1045680000ED00E0064B40F00100C3F894005A6AE1
:1045780042F480325A62BFF34F8FBFF36F8F704798
:1045880000ED00E0174A4378C2F89830017821B36B
:10459800436800B5C2F89C30C37A90F80CC01B067B
:1045A80090F80FE043EA0C7390F80AC00B43817B44
:1045B80043EACC4390F80DC043EA8C4390F809C015
:1045C80043EA4143017A43EA0E4343EA0C2343EAB0
:1045D8004103C2F8A0305DF804FBC2F89C10C2F891
:1045E800A010704700ED00E0704700BF08B5FFF766
:1045F800FBFF08BD0268344B344930B4344D354CA8
:10460800AA4218BF9A420CBF012300238A4208BF5E
:1046180043F001033031A24208BF43F001033034B4
:104628008A4208BF43F001033031A24208BF43F079
:10463800010330348A4208BF43F0010301F55C717D
:10464800A24208BF43F0010304F55C748A4208BF24
:1046580043F001033031A24208BF43F00103303474
:104668008A4208BF43F001033031A24208BF43F039
:10467800010330348A4208BF43F001033031A242BB
:1046880008BF43F001038A4208BF43F0010313B98E
:10469800114B9A4213D1D3B21049114C103BA1FBD4
:1046A80003515F2B0F4BC1F3021103EA0203615C54
:1046B80088BF0433C1658365184630BC704722F053
:1046C800FF038365F8E700BF100002404000024086
:1046D8002800024058000240B8040240ABAAAAAA27
:1046E80050F3000800FCFFFF0368294A294930B449
:1046F800294D2A4CAB4218BF93420CBF012200221D
:104708008B4208BF42F001022831A34208BF42F0A1
:10471800010228348B4208BF42F001022831A3422B
:1047280008BF42F001028B4208BF42F0010212B9F1
:104738001B4A934213D1DBB21A4C1B4A0121083B96
:104748001A4DA4FB0343456602EB1312C3F304138B
:10475800920001FA03F30266836630BC7047DAB24E
:104768001349144C1944103AA829A4FB02234FEA10
:10477800131300D80833104A03F01F0501210F4C0A
:104788001A44A9404466920081660266E5E700BFC4
:1047980008540258305402581C54025844540258C1
:1047A80094540258CDCCCCCC0096001680580258B0
:1047B800F0FBFDBFABAAAAAA008200108008024045
:1047C80070B50446FFF71AFE002C00F0C680236877
:1047D8000546954A934248D01832934245D0303224
:1047E80092498B4218BF934201F130010CBF01225C
:1047F80000228B4208BF42F0010218318B4208BFE9
:1048080042F0010218318B4208BF42F00102183110
:104818008B4208BF42F0010201F556718B4208BF76
:1048280042F0010218318B4208BF42F001021831F0
:104838008B4208BF42F0010218318B4208BF42F098
:10484800010218318B4208BF42F0010218318B4235
:1048580008BF42F0010218318B4208BF42F0010242
:104868001AB9734A934240F0F5800222002184F875
:10487800352084F834101A6822F001021A6005E025
:10488800FFF7BCFD431B052B40D823681A68D107E6
:10489800F6D4D4E9022521692A43A0691D680A4390
:1048A80061690A43E16902430A4362492940256A6A
:1048B8002A430A43616A04292FD01A605A6922F0F0
:1048C8000702114359612046FFF794FEE26D3F232A
:1048D80002F01F02934083602046FFF705FFA3689C
:1048E800802B3CD06368A06EDAB2013BD4E9185142
:1048F800072B2A60486026D90023C4E91B33636765
:1049080000200123606584F8353070BD2022032320
:104918000120626584F8353070BDD4E90B51294314
:104928000A431A605969A26A21F00701114341F04C
:104938000401002DC6D000284FD1012A6ED032F0D4
:104948000202BFD151E0501E072810D9626FD4E986
:104958001B31002018604A60D2E7012070BD002397
:10496800A16ED4E91802636003605160C4E721684E
:10497800314B324DA94218BF994205F114050CBFBD
:1049880001230023A94208BF43F001031435A942BB
:1049980008BF43F001031435A94208BF43F00103DF
:1049A8001435A94208BF43F001031435A94208BFD2
:1049B80043F001033BB9224B994204D0214B2249D1
:1049C80013449B0003E0214B214913449B0001221F
:1049D8008240C4E91B316267BBE7B0F5005F0ED0C7
:1049E800022A05D9032A7FF46DAFEA017FF56AAF81
:1049F800012340221846626584F8353070BD032AC9
:104A08003FF660AF01A050F822F000BFF949000856
:104A1800F3490008F9490008254A0008B5F1C07FA4
:104A28007FF450AFE4E700BF1000024040000240AE
:104A3800B80402403F8010FE085402581C54025823
:104A4800945402583F820010400902403F960016D5
:104A580040590258324A33483349834218BF934277
:104A680000F128000CBF012200228B4208BF42F04F
:104A780001022831834208BF42F0010228308B42EC
:104A880008BF42F001022831834208BF42F0010208
:104A98008B4208BF42F0010212B9244A934238D12E
:104AA80002220021224D84F8341084F835201A6837
:104AB8001540A268402A2AD0802A0CBF4FF48040B3
:104AC8000846266AD4E90312D20842EAD10261698B
:104AD80042EAD102A16942EAD102E16942EAD1027D
:104AE800144942EA161219442A4302431248A0FB09
:104AF800010120461A600B099B00E365FFF77AFD68
:104B0800E26D012302F01F0293404360E4E61020A7
:104B1800D7E7402203230120626584F8353070BD51
:104B2800085402581C5402583054025894540258DD
:104B38000F00FEFFF8ABFDA7CDCCCCCC002800F0D1
:104B4800BC80844690F83400012800F0B880012029
:104B58002DE9F0419CF835408CF83400844208D0A7
:104B680000224FF400638CF83420CCF85430BDE8B0
:104B7800F0810220DCF800507A4C8CF835000020D7
:104B8800794ECCF854007948854218BFA54200F107
:104B980018000CBF01240024854208BF44F001041A
:104BA8001830854208BF44F001041830854208BF18
:104BB80044F001041830854208BF44F0010400F5B0
:104BC8005670854208BF44F001041830854208BF7A
:104BD80044F001041830854208BF44F0010418303D
:104BE800854208BF44F001041830854208BF44F0EC
:104BF80001041830854208BF44F00104183085428A
:104C080008BF44F001041830854208BF44F001048D
:104C1800A0F59560B54218BF8542DCF86C600CBF02
:104C28000120002054EA0008286820F001002860CC
:104C3800DCF86400DCF86840DCF85870446040D068
:104C480016B1DCE91C044460DCF85C004FF03F0E50
:104C580000F01F000EFA00F0B860286820F48020E9
:104C680028606B60DCF80830402B23D0A960EA602C
:104C78002B6823F01E0343F016032B60DCF840304A
:104C88001BB12B6843F008032B60DCF860301A680E
:104C9800D20303D51A6842F480721A601EB13368D1
:104CA80043F4807333602B68002043F001032B60CA
:104CB800BDE8F081AA60E960DAE7012070470220C8
:104CC800704716B1DCE91C0444602948DFF8A8E005
:104CD800754518BF85420EF1140E0CBF0120002047
:104CE800754508BF40F001000EF1140E754508BF68
:104CF80040F001000EF1140E754508BF40F00100A8
:104D08000EF1140E754508BF40F001000EF1140EA7
:104D1800754508BF40F0010010B9164885420ED10C
:104D2800DCF85C0000F01F0E012000FA0EF078603D
:104D38006B60DCF80830402B10D0A960EA602B6863
:104D480023F00E0343F00A032B60DCF84030002BFD
:104D58009BD02B6843F004032B6096E7AA60E960B8
:104D6800EDE700BF40000240280002405800024022
:104D780008540258945402581C54025800285FD012
:104D880038B590F835200346022A55D10168444ABF
:104D9800914248D01832914245D03032414C424875
:104DA800A14218BF914204F148040CBF012200221D
:104DB800814208BF42F001023030A14208BF42F0F0
:104DC80001023034814208BF42F0010200F55C70F4
:104DD800A14208BF42F0010204F55C74814208BF99
:104DE80042F001023030A14208BF42F001023034E3
:104DF800814208BF42F001023030A14208BF42F0B0
:104E080001023034814208BF42F001023030A14231
:104E180008BF42F00102814208BF42F0010212B904
:104E2800224A91420ED10422002083F835200B68D3
:104E380023F001030B6038BD802201205A6538BD7C
:104E4800012070470A681C6E22F00E02D86D9D6D15
:104E58000A6000F01F000A6822F001020A600122BD
:104E68002168824021F4807121606A60DA6ED3E99A
:104E78001910486032B11168D3E91C0421F480711B
:104E880011604460002401211A6D83F8344083F8CE
:104E980035101AB118469047204638BD104638BD1F
:104EA800100002404000024070000240B804024076
:104EB8002DE9F04300229C4B83B09C4E1D6881462F
:104EC800019203689A4A846D934218BFB3422768D7
:104ED80008BF0126216818BF002645D0183295481A
:104EE800834218BF934200F118000CBF0122002230
:104EF800834208BF42F001021830834208BF42F0E3
:104F080001021830834208BF42F001021830834280
:104F180008BF42F0010200F55670834208BF42F014
:104F280001021830834208BF42F001021830834260
:104F380008BF42F001021830834208BF42F0010264
:104F48001830834208BF42F001021830834208BF7C
:104F580042F001021830834208BF42F001021AB938
:104F6800754A934240F05082D9F85C10082201F04B
:104F78001F0C02FA0CF2174240F0888127FA0CF253
:104F8800D2070CD55A69100609D5012202FA0CF28B
:104F9800A260D9F8542042F00202C9F854204FF018
:104FA800040E0EFA0CF038425BD0002E4FD1634A43
:104FB800DFF88081434518BF934208F118080CBFF9
:104FC80001220022434508BF42F0010208F11808F7
:104FD800434508BF42F0010208F11808434508BFDD
:104FE80042F0010208F11808434508BF42F00102E7
:104FF80008F55678434508BF42F0010208F1180841
:10500800434508BF42F0010208F11808434508BFAC
:1050180042F0010208F11808434508BF42F00102B6
:1050280008F11808434508BF42F0010208F11808C2
:10503800434508BF42F0010208F11808434508BF7C
:1050480042F001021AB93C4A934240F019821A68A8
:10505800920706D5A060D9F8542042F00402C9F896
:105068005420102202FA0CFC1CEA070F6CD0002E08
:1050780045D1324A2F4EB34218BF934206F1180663
:105088000CBF01220022B34208BF42F001021836C9
:10509800B34208BF42F001021836B34208BF42F0DB
:1050A80001021836B34208BF42F0010206F55676EF
:1050B800B34208BF42F001021836B34208BF42F0BB
:1050C80001021836B34208BF42F001021836B34253
:1050D80008BF42F001021836B34208BF42F001028D
:1050E8001836B34208BF42F001021836B34208BF6F
:1050F80042F001021AB9104A934240F0C9811A6875
:10510800100721D5C4F808C01A68560300F14C816D
:105118001A68D20503D41A6822F008021A60D9F86E
:1051280040308BB10CE000BF7C010024100002402D
:105138002800024058000240B804024040000240E3
:1051480048469847D9F85C1001F01F0120268E4088
:105158003E4268D0D9F80020A54BA64FBA4218BFE6
:105168009A4207F118070CBF01230023BA4208BF6F
:1051780043F001031837BA4208BF43F00103183758
:10518800BA4208BF43F001031837BA4208BF43F0D8
:1051980001031837BA4208BF43F001031837BA426F
:1051A80008BF43F0010307F55677BA4208BF43F03A
:1051B80001031837BA4208BF43F001031837BA424F
:1051C80008BF43F001031837BA4208BF43F0010390
:1051D8001837BA4208BF43F001031837BA4208BF6C
:1051E80043F001031837BA4208BF43F001031BB963
:1051F800814B9A4240F062811368DB0613D5A660A2
:1052080099F83530042B136800F0AE8013F4802F22
:10521800136800F0D3801C0340F1DE80D9F83C30DD
:105228000BB148469847D9F85430002B00F0B980A4
:10523800D9F85430D8071FD5D9F80020042189F8A7
:105248003510136823F0010313606C4BA3FB05357D
:10525800AD0A02E01368D90704D5019B0133AB42BC
:105268000193F7D9002389F834301368DB074CBF62
:105278000323012389F83530D9F84C30002B00F08E
:105288009080484603B0BDE8F043184718684007C7
:105298000AD5186820F004001860A260D9F85420D4
:1052A80042F00102C9F8542027FA0CF2D2077FF520
:1052B80076AE534A5348834218BF934200F13000F8
:1052C8000CBF01220022834208BF42F001021830BD
:1052D800834208BF42F001021830834208BF42F0FF
:1052E80001021830834208BF42F0010200F55670EF
:1052F800834208BF42F001021830834208BF42F0DF
:1053080001021830834208BF42F00102183083427C
:1053180008BF42F001021830834208BF42F0010280
:105328001830834208BF42F001021830834208BF98
:1053380042F001021830834208BF42F00102002AFD
:105348007FF420AE002E7FF41DAE1A68042202FA04
:105358000CF23A4240F09480102202FA0CFC17EA50
:105368000C0F3FF4F1AE84E623F016031360536983
:1053780023F080035361D9F840309BB3136823F0BE
:10538800080313603F230025012203FA01F1D9F82D
:105398005030A16089F8345089F83520002B7FF40B
:1053A80070AF03B0BDE8F0831B6818037FF5B7AE94
:1053B800D9F84830002B7FF4C3AEC5E613F48073E8
:1053C8007FF42CAF116821F010011160012289F8D7
:1053D800343089F8352021E7D9F84430002B7FF4A0
:1053E80020AF20E7D9F84830002BC7D1CAE700BF63
:1053F8001000024028000240B8040240B5814E1B4C
:1054080058000240400002404E4A4F4DAB4218BF80
:10541800934205F114050CBF01220022AB4208BFDC
:1054280042F001021435AB4208BF42F001021435C4
:10543800AB4208BF42F001021435AB4208BF42F04C
:1054480001021435AB4208BF42F0010212B93F4ACB
:105458009342A6D1D9F85C5004261A6805F01F05B6
:10546800AE400E4219D0570717D5100466604BD5C9
:10547800D1034FD4D9F84830002B7FF402AF90E71E
:105488001A68102202FA0CFC17EA0C0F3FF45CAE03
:105498001A6852077FF558AE34E60226AE400E422F
:1054A80011D097070FD56660140439D5D00343D4BB
:1054B800D9F84430002B7FF4E4AE72E713689F07F5
:1054C8007FF5B1AE9BE60826AE400E423FF469AFC9
:1054D80011077FF566AF1A68002122F00E021A60E4
:1054E8000123D9F84C2003FA05F56560C9F8543052
:1054F80089F8341089F83530002A3FF452AF48460D
:1055080003B0BDE8F0431047920603D41A6822F0AE
:1055180004021A60D9F84030002B7FF4B2AE40E79D
:1055280012F0200208D11968012421F00A0119603B
:1055380089F8342089F83540D9F83C30002B7FF4BD
:10554800A0AE2EE7085402581C540258945402582E
:10555800406D70472DE9F04F0D6883B0002D00F0C5
:10556800D5800023DFF8688201229A4012EA050CF0
:1055780000F0C7804E6826F01009B9F1020F40F01C
:10558800C88003F007044FEAD30E4FF00F0A4FEA22
:10559800840900EB8E0E0AFA09FADEF8204024EAA4
:1055A8000A0A0C6904FA09F406F0030944EA0A0431
:1055B800CEF820404FEA430E0324D0F800A009FAA1
:1055C8000EF904FA0EF42AEA040AE44349EA0A093D
:1055D800C0F80090D0F808A0CF6804EA0A0A07FAD1
:1055E8000EF949EA0A09C0F80890C6F30019D0F87C
:1055F80004A009FA03F92AEA020249EA020242600F
:10560800C268F70004EA02048A6802FA0EF242EA63
:105618000402C26075D5644C23F0030E03F003093D
:10562800D4F8F420C6444FEA890942F00202C4F8CB
:10563800F420D4F8F42002F002020192019A0F2219
:10564800DEF8084002FA09F224EA0202574CA042A6
:1056580025D004F58064A0427BD0554CA0427ED072
:10566800544CA0426FD0544CA04200F08480534C5C
:10567800A04200F08680524CA04276D0514CA04205
:1056880000F08580504CA04200F087804F4CA0422B
:105698000CBF09240A2404FA09F942EA0902CEF8DF
:1056A80008204FF0B0426FEA0C0EF403D2F88020C5
:1056B8004FF0B04454BF0EEA02024CEA0202C4F8AA
:1056C8008020B203D4F884404FF0B04254BF0EEAB1
:1056D80004044CEA0404F702C2F8844014684FF04A
:1056E800B04254BF0EEA04044CEA04041460B40245
:1056F80052684FF0B04454BF0EEA02024CEA02026C
:105708006260013335FA03F27FF42EAF03B0BDE8CF
:10571800F08F4FEA430E0324D0F800B006F0030AD6
:1057280004FA0EF409F1FF390AFA0EFA2BEA040B0F
:10573800B9F1010F6FEA04044AEA0B0AC0F800A0A5
:105748003FF65EAF46E7032404FA09F942EA090284
:10575800A5E7012404FA09F942EA09029FE70224AD
:1057680004FA09F942EA090299E7062404FA09F950
:1057780042EA090293E7042404FA09F942EA090211
:105788008DE7052404FA09F942EA090287E70724A4
:1057980004FA09F942EA090281E7082404FA09F936
:1057A80042EA09027BE700BF0044025800000258A1
:1057B80000080258000C0258001002580014025841
:1057C80000180258001C02580020025800240258F1
:1057D80000040058002900F0A88000232DE9F04FAC
:1057E800DFF8689183B0DFF86881DFF868A1DFF837
:1057F80068B14FF0010E0EFA03F212EA010C6FD0F5
:1058080023F0030503F003040F2640454D444FEAF7
:10581800C404AF6806FA04F607EA0607019721D020
:10582800504566D0584567D0434FB8426ED0434F75
:10583800B84270D0424FB84263D0424FB84256D0B7
:10584800414FB84272D0DFF814E1704568D0DFF8F4
:1058580010E1704514BF4FF00A0E4FF0090E0EFA12
:1058680004F400E00024019FA74219D1AC6824EA9F
:1058780006064FF0B044AE60D4F8805025EA0C0517
:10588800C4F88050D4F8845025EA0C05C4F8845034
:10589800256825EA0C052560656825EA0C0565601C
:1058A80003255C0003F007070F2605FA04F40568D2
:1058B800BF00254306FA07F70560DD0800EB8505FC
:1058C8002E6A26EA07062E62856825EA04058560A1
:1058D800456825EA02024260C26822EA0404C460FC
:1058E800013331FA03F284D103B0BDE8F08F4FF0F1
:1058F800060E0EFA04F4B6E74FF0020E0EFA04F4A0
:10590800B1E74FF0050E0EFA04F4ACE74FF0030EC2
:105918000EFA04F4A7E74FF0040E0EFA04F4A2E717
:105928004FF0080E0EFA04F49DE770474FF0070E8B
:105938000EFA04F497E700BF000C02580010025852
:105948000014025800180258001C0258000400589D
:1059580000000258000402580008025800200258AB
:10596800002402580369194214BF0120002070471F
:1059780002B90904816170472DE9F04F056885B0C7
:105988000446284605F082FC012802D005B0BDE88F
:10599800F08F206805F02AFC0028F7D0206805F071
:1059A80025FC10F4001F206802D04FF40013436157
:1059B80005F01CFC10F4801F206802D04FF48013FF
:1059C800436105F013FC10F0806F206802D04FF09F
:1059D8008063436105F00AFC10F0020F20682FD1A4
:1059E80005F004FC870000F11381206805F0FEFB38
:1059F800C60100F1CF80206805F0F8FB000700F130
:105A0800BE80206805F0F2FB10F0007F20681AD1F4
:105A180005F0ECFBC306B9D52568AB6923F0100384
:105A2800AB612E6AC6F34341C6F30A17022902D1B5
:105A3800002F40F0C681AB6943F01003AB61A5E7C6
:105A480002234361CCE705F08FFCD4F808E08046D8
:105A58002068BEF1000F00F0998005F5A0650026CA
:105A68004FF0280B4FF0020A4AE000F5A0694A01FE
:105A780009EB4117BB685B075DD50423BB60FB6876
:105A880043F00203FB60BB68980500F1FD80BB682A
:105A9800DB0740F1CF80236953B101EB81003B69FB
:105AA80004EBC000C3F3120C836CA3EB0C03C364B8
:105AB8008B004FF0010C4FF0000E581804EBC0009B
:105AC800C0F858E080F85DC0C7F808C090F83FE01B
